{
  "_format": "hh-sol-artifact-1",
  "contractName": "PrivateInfoStorage",
  "sourceName": "contracts/PrivateInfoStorage.sol",
  "abi": [
    {
      "inputs": [],
      "stateMutability": "nonpayable",
      "type": "constructor"
    },
    {
      "anonymous": false,
      "inputs": [
        {
          "indexed": true,
          "internalType": "address",
          "name": "_address",
          "type": "address"
        }
      ],
      "name": "AddedToWhitelist",
      "type": "event"
    },
    {
      "anonymous": false,
      "inputs": [
        {
          "indexed": false,
          "internalType": "string",
          "name": "_newInfo",
          "type": "string"
        }
      ],
      "name": "PrivateInfoUpdated",
      "type": "event"
    },
    {
      "inputs": [
        {
          "internalType": "address",
          "name": "_address",
          "type": "address"
        }
      ],
      "name": "addToWhitelist",
      "outputs": [],
      "stateMutability": "nonpayable",
      "type": "function"
    },
    {
      "inputs": [],
      "name": "getPrivateInfo",
      "outputs": [
        {
          "internalType": "string",
          "name": "",
          "type": "string"
        }
      ],
      "stateMutability": "view",
      "type": "function"
    },
    {
      "inputs": [],
      "name": "owner",
      "outputs": [
        {
          "internalType": "address",
          "name": "",
          "type": "address"
        }
      ],
      "stateMutability": "view",
      "type": "function"
    },
    {
      "inputs": [
        {
          "internalType": "string",
          "name": "_info",
          "type": "string"
        }
      ],
      "name": "setPrivateInfo",
      "outputs": [],
      "stateMutability": "nonpayable",
      "type": "function"
    },
    {
      "inputs": [
        {
          "internalType": "address",
          "name": "",
          "type": "address"
        }
      ],
      "name": "whitelist",
      "outputs": [
        {
          "internalType": "bool",
          "name": "",
          "type": "bool"
        }
      ],
      "stateMutability": "view",
      "type": "function"
    }
  ],
  "bytecode": "0x6080604052348015600f57600080fd5b5033600260006101000a81548173ffffffffffffffffffffffffffffffffffffffff021916908373ffffffffffffffffffffffffffffffffffffffff1602179055506001806000735ec605060d810669fd7134494c4af17ab438cc9273ffffffffffffffffffffffffffffffffffffffff1673ffffffffffffffffffffffffffffffffffffffff16815260200190815260200160002060006101000a81548160ff021916908315150217905550610e88806100cb6000396000f3fe608060405234801561001057600080fd5b50600436106100575760003560e01c80638da5cb5b1461005c5780639b19251a1461007a578063a1de9914146100aa578063b96d5e12146100c8578063e43252d7146100e4575b600080fd5b610064610100565b60405161007191906105ee565b60405180910390f35b610094600480360381019061008f9190610649565b610126565b6040516100a19190610691565b60405180910390f35b6100b2610146565b6040516100bf919061073c565b60405180910390f35b6100e260048036038101906100dd9190610893565b610264565b005b6100fe60048036038101906100f99190610649565b610384565b005b600260009054906101000a900473ffffffffffffffffffffffffffffffffffffffff1681565b60016020528060005260406000206000915054906101000a900460ff1681565b6060600160003373ffffffffffffffffffffffffffffffffffffffff1673ffffffffffffffffffffffffffffffffffffffff16815260200190815260200160002060009054906101000a900460ff166101d4576040517f08c379a00000000000000000000000000000000000000000000000000000000081526004016101cb90610928565b60405180910390fd5b600080546101e190610977565b80601f016020809104026020016040519081016040528092919081815260200182805461020d90610977565b801561025a5780601f1061022f5761010080835404028352916020019161025a565b820191906000526020600020905b81548152906001019060200180831161023d57829003601f168201915b5050505050905090565b600260009054906101000a900473ffffffffffffffffffffffffffffffffffffffff1673ffffffffffffffffffffffffffffffffffffffff163373ffffffffffffffffffffffffffffffffffffffff16146102f4576040517f08c379a00000000000000000000000000000000000000000000000000000000081526004016102eb90610a1a565b60405180910390fd5b6101008151111561033a576040517f08c379a000000000000000000000000000000000000000000000000000000000815260040161033190610aac565b60405180910390fd5b80600090816103499190610c82565b507f9885e3c0f7c44cf921cbd6ddcd70326cdd5c47be7a73ee8afc7490336a0b88ba81604051610379919061073c565b60405180910390a150565b600260009054906101000a900473ffffffffffffffffffffffffffffffffffffffff1673ffffffffffffffffffffffffffffffffffffffff163373ffffffffffffffffffffffffffffffffffffffff1614610414576040517f08c379a000000000000000000000000000000000000000000000000000000000815260040161040b90610a1a565b60405180910390fd5b600073ffffffffffffffffffffffffffffffffffffffff168173ffffffffffffffffffffffffffffffffffffffff1603610483576040517f08c379a000000000000000000000000000000000000000000000000000000000815260040161047a90610da0565b60405180910390fd5b600160008273ffffffffffffffffffffffffffffffffffffffff1673ffffffffffffffffffffffffffffffffffffffff16815260200190815260200160002060009054906101000a900460ff1615610510576040517f08c379a000000000000000000000000000000000000000000000000000000000815260040161050790610e32565b60405180910390fd5b60018060008373ffffffffffffffffffffffffffffffffffffffff1673ffffffffffffffffffffffffffffffffffffffff16815260200190815260200160002060006101000a81548160ff0219169083151502179055508073ffffffffffffffffffffffffffffffffffffffff167fa850ae9193f515cbae8d35e8925bd2be26627fc91bce650b8652ed254e9cab0360405160405180910390a250565b600073ffffffffffffffffffffffffffffffffffffffff82169050919050565b60006105d8826105ad565b9050919050565b6105e8816105cd565b82525050565b600060208201905061060360008301846105df565b92915050565b6000604051905090565b600080fd5b600080fd5b610626816105cd565b811461063157600080fd5b50565b6000813590506106438161061d565b92915050565b60006020828403121561065f5761065e610613565b5b600061066d84828501610634565b91505092915050565b60008115159050919050565b61068b81610676565b82525050565b60006020820190506106a66000830184610682565b92915050565b600081519050919050565b600082825260208201905092915050565b60005b838110156106e65780820151818401526020810190506106cb565b60008484015250505050565b6000601f19601f8301169050919050565b600061070e826106ac565b61071881856106b7565b93506107288185602086016106c8565b610731816106f2565b840191505092915050565b600060208201905081810360008301526107568184610703565b905092915050565b600080fd5b600080fd5b7f4e487b7100000000000000000000000000000000000000000000000000000000600052604160045260246000fd5b6107a0826106f2565b810181811067ffffffffffffffff821117156107bf576107be610768565b5b80604052505050565b60006107d2610609565b90506107de8282610797565b919050565b600067ffffffffffffffff8211156107fe576107fd610768565b5b610807826106f2565b9050602081019050919050565b82818337600083830152505050565b6000610836610831846107e3565b6107c8565b90508281526020810184848401111561085257610851610763565b5b61085d848285610814565b509392505050565b600082601f83011261087a5761087961075e565b5b813561088a848260208601610823565b91505092915050565b6000602082840312156108a9576108a8610613565b5b600082013567ffffffffffffffff8111156108c7576108c6610618565b5b6108d384828501610865565b91505092915050565b7f4e6f20657374617320656e206c612077686974656c6973740000000000000000600082015250565b60006109126018836106b7565b915061091d826108dc565b602082019050919050565b6000602082019050818103600083015261094181610905565b9050919050565b7f4e487b7100000000000000000000000000000000000000000000000000000000600052602260045260246000fd5b6000600282049050600182168061098f57607f821691505b6020821081036109a2576109a1610948565b5b50919050565b7f4e6f206572657320656c2070726f706965746172696f2064656c20636f6e747260008201527f61746f0000000000000000000000000000000000000000000000000000000000602082015250565b6000610a046023836106b7565b9150610a0f826109a8565b604082019050919050565b60006020820190508181036000830152610a33816109f7565b9050919050565b7f4c6120696e666f726d6163696f6e2065732064656d61736961646f206c61726760008201527f6100000000000000000000000000000000000000000000000000000000000000602082015250565b6000610a966021836106b7565b9150610aa182610a3a565b604082019050919050565b60006020820190508181036000830152610ac581610a89565b9050919050565b60008190508160005260206000209050919050565b60006020601f8301049050919050565b600082821b905092915050565b600060088302610b2e7fffffffffffffffffffffffffffffffffffffffffffffffffffffffffffffffff82610af1565b610b388683610af1565b95508019841693508086168417925050509392505050565b6000819050919050565b6000819050919050565b6000610b7f610b7a610b7584610b50565b610b5a565b610b50565b9050919050565b6000819050919050565b610b9983610b64565b610bad610ba582610b86565b848454610afe565b825550505050565b600090565b610bc2610bb5565b610bcd818484610b90565b505050565b5b81811015610bf157610be6600082610bba565b600181019050610bd3565b5050565b601f821115610c3657610c0781610acc565b610c1084610ae1565b81016020851015610c1f578190505b610c33610c2b85610ae1565b830182610bd2565b50505b505050565b600082821c905092915050565b6000610c5960001984600802610c3b565b1980831691505092915050565b6000610c728383610c48565b9150826002028217905092915050565b610c8b826106ac565b67ffffffffffffffff811115610ca457610ca3610768565b5b610cae8254610977565b610cb9828285610bf5565b600060209050601f831160018114610cec5760008415610cda578287015190505b610ce48582610c66565b865550610d4c565b601f198416610cfa86610acc565b60005b82811015610d2257848901518255600182019150602085019450602081019050610cfd565b86831015610d3f5784890151610d3b601f891682610c48565b8355505b6001600288020188555050505b505050505050565b7f446972656363696f6e20696e76616c6964610000000000000000000000000000600082015250565b6000610d8a6012836106b7565b9150610d9582610d54565b602082019050919050565b60006020820190508181036000830152610db981610d7d565b9050919050565b7f4c6120646972656363696f6e207961206573746120656e206c6120776869746560008201527f6c69737400000000000000000000000000000000000000000000000000000000602082015250565b6000610e1c6024836106b7565b9150610e2782610dc0565b604082019050919050565b60006020820190508181036000830152610e4b81610e0f565b905091905056fea2646970667358221220117f41777e8eaf8b74d76d85623cb6ba60bf43b511867d9b9b4f737929047e0764736f6c634300081c0033",
  "linkReferences": {},
  "deployedLinkReferences": {}
}